S00F000050574D546573742E7372656381
S11300000C942A000C9434000C9434000C943400A6
S11300100C9434000C9434000C9434000C9434008C
S11300200C9434000C9434000C9434000C9434007C
S11300300C9434000C9434000C9434000C9434006C
S11300400C9434000C9434000C9434000C9434005C
S11300500C94340011241FBECFE5D4E0DEBFCDBF25
S11300600E9436000C945D000C94000083B78864F1
S113007083BF83B7806283BF83B78F7E83BF83B719
S11300808B7F83BF83B78D7F83BF83B7816083BF3B
S1130090BB9A8FEF8CBF91E080E03FEF21E08CBFF3
S11300A0890F8F3F21F0811103C0922F01C0932F3C
S11100B0E3E3FBE23197F1F7F2CFF894FFCFD0
S9030000FC
